{
  "_format": "hh-sol-artifact-1",
  "contractName": "Auction",
  "sourceName": "contracts/Auction.sol",
  "abi": [
    {
      "inputs": [],
      "stateMutability": "nonpayable",
      "type": "constructor"
    },
    {
      "inputs": [],
      "name": "auctionEnded",
      "outputs": [
        {
          "internalType": "bool",
          "name": "",
          "type": "bool"
        }
      ],
      "stateMutability": "view",
      "type": "function"
    },
    {
      "inputs": [],
      "name": "auctioneer",
      "outputs": [
        {
          "internalType": "address",
          "name": "",
          "type": "address"
        }
      ],
      "stateMutability": "view",
      "type": "function"
    },
    {
      "inputs": [],
      "name": "endAuction",
      "outputs": [],
      "stateMutability": "nonpayable",
      "type": "function"
    },
    {
      "inputs": [],
      "name": "getAuctionStatus",
      "outputs": [
        {
          "internalType": "bool",
          "name": "",
          "type": "bool"
        }
      ],
      "stateMutability": "view",
      "type": "function"
    },
    {
      "inputs": [],
      "name": "getHighestBid",
      "outputs": [
        {
          "internalType": "uint256",
          "name": "",
          "type": "uint256"
        }
      ],
      "stateMutability": "view",
      "type": "function"
    },
    {
      "inputs": [],
      "name": "highestBid",
      "outputs": [
        {
          "internalType": "uint256",
          "name": "",
          "type": "uint256"
        }
      ],
      "stateMutability": "view",
      "type": "function"
    },
    {
      "inputs": [],
      "name": "highestBidder",
      "outputs": [
        {
          "internalType": "address payable",
          "name": "",
          "type": "address"
        }
      ],
      "stateMutability": "view",
      "type": "function"
    },
    {
      "inputs": [],
      "name": "placeBid",
      "outputs": [],
      "stateMutability": "payable",
      "type": "function"
    }
  ],
  "bytecode": "0x608060405234801561001057600080fd5b50336000806101000a81548173ffffffffffffffffffffffffffffffffffffffff021916908373ffffffffffffffffffffffffffffffffffffffff160217905550610790806100606000396000f3fe60806040526004361061007b5760003560e01c806391f901571161004e57806391f901571461012c578063d57bde7914610157578063ecfc7ecc14610182578063fe67a54b1461018c5761007b565b80632e93be30146100805780634979440a146100ab5780635ec2c7bf146100d65780638643337414610101575b600080fd5b34801561008c57600080fd5b506100956101a3565b6040516100a29190610659565b60405180910390f35b3480156100b757600080fd5b506100c06101ba565b6040516100cd91906106d4565b60405180910390f35b3480156100e257600080fd5b506100eb6101c4565b6040516100f89190610623565b60405180910390f35b34801561010d57600080fd5b506101166101e8565b6040516101239190610659565b60405180910390f35b34801561013857600080fd5b506101416101fb565b60405161014e919061063e565b60405180910390f35b34801561016357600080fd5b5061016c610221565b60405161017991906106d4565b60405180910390f35b61018a610227565b005b34801561019857600080fd5b506101a16103c7565b005b6000600260149054906101000a900460ff16905090565b6000600154905090565b60008054906101000a900473ffffffffffffffffffffffffffffffffffffffff1681565b600260149054906101000a900460ff1681565b600260009054906101000a900473ffffffffffffffffffffffffffffffffffffffff1681565b60015481565b600260149054906101000a900460ff1615610277576040517f08c379a000000000000000000000000000000000000000000000000000000000815260040161026e90610694565b60405180910390fd5b60015434116102bb576040517f08c379a00000000000000000000000000000000000000000000000000000000081526004016102b290610674565b60405180910390fd5b600073ffffffffffffffffffffffffffffffffffffffff16600260009054906101000a900473ffffffffffffffffffffffffffffffffffffffff1673ffffffffffffffffffffffffffffffffffffffff161461037d57600260009054906101000a900473ffffffffffffffffffffffffffffffffffffffff1673ffffffffffffffffffffffffffffffffffffffff166108fc6001549081150290604051600060405180830381858888f1935050505015801561037b573d6000803e3d6000fd5b505b3460018190555033600260006101000a81548173ffffffffffffffffffffffffffffffffffffffff021916908373ffffffffffffffffffffffffffffffffffffffff160217905550565b60008054906101000a900473ffffffffffffffffffffffffffffffffffffffff1673ffffffffffffffffffffffffffffffffffffffff163373ffffffffffffffffffffffffffffffffffffffff1614610455576040517f08c379a000000000000000000000000000000000000000000000000000000000815260040161044c906106b4565b60405180910390fd5b6001600260146101000a81548160ff021916908315150217905550600260009054906101000a900473ffffffffffffffffffffffffffffffffffffffff1673ffffffffffffffffffffffffffffffffffffffff166108fc479081150290604051600060405180830381858888f193505050501580156104d8573d6000803e3d6000fd5b50565b6104e481610712565b82525050565b6104f381610700565b82525050565b61050281610724565b82525050565b6000610515602b836106ef565b91507f426964206d75737420626520686967686572207468616e2063757272656e742060008301527f68696768657374206269640000000000000000000000000000000000000000006020830152604082019050919050565b600061057b6011836106ef565b91507f41756374696f6e2068617320656e6465640000000000000000000000000000006000830152602082019050919050565b60006105bb6027836106ef565b91507f4f6e6c79207468652061756374696f6e6565722063616e20656e64207468652060008301527f61756374696f6e000000000000000000000000000000000000000000000000006020830152604082019050919050565b61061d81610750565b82525050565b600060208201905061063860008301846104ea565b92915050565b600060208201905061065360008301846104db565b92915050565b600060208201905061066e60008301846104f9565b92915050565b6000602082019050818103600083015261068d81610508565b9050919050565b600060208201905081810360008301526106ad8161056e565b9050919050565b600060208201905081810360008301526106cd816105ae565b9050919050565b60006020820190506106e96000830184610614565b92915050565b600082825260208201905092915050565b600061070b82610730565b9050919050565b600061071d82610730565b9050919050565b60008115159050919050565b600073ffffffffffffffffffffffffffffffffffffffff82169050919050565b600081905091905056fea2646970667358221220a6a4968a3291f7408a866b3abf77b0e9dc37a940dfa375254c3c80232dec2a4364736f6c63430008000033",
  "linkReferences": {},
  "deployedLinkReferences": {}
}